:103800000C94341C0C94511C0C94511C0C94511CA1
:103810000C94511C0C94511C0C94511C0C94511C74
:103820000C94511C0C949D1C0C94511C0C94511C18
:103830000C94511C0C94511C0C94511C0C94511C54
:103840000C94531C0C94511C0C94511C0C94511C42
:103850000C94511C0C94511C0C94511C0C94511C34
:103860000C94511C0C94511C11241FBECFEFD4E0BA
:10387000DEBFCDBF11E0A0E0B1E0E6EFFFE302C0A4
:1038800005900D92A230B107D9F722E0A2E0B1E095
:1038900001C01D92A931B207E1F70E94E51D0C9409
:1038A000F91F0C94001C1F920F920FB60F92112457
:1038B0008F939F93AF93BF938091060190910701DF
:1038C000A0910801B09109010196A11DB11D80933D
:1038D000060190930701A0930801B0930901BF91DD
:1038E000AF919F918F910F900FBE0F901F901895E1
:1038F0003FB7F8948091060190910701A0910801CB
:10390000B091090126B5A89B05C0222319F00196A4
:10391000A11DB11D3FBFBA2FA92F982F8827820F55
:10392000911DA11DB11DBC01CD0143E0660F771FA4
:10393000881F991F4A95D1F708951F920F920FB6CD
:103940000F9211242F933F934F935F936F937F9325
:103950008F939F93AF93BF93EF93FF938091000159
:10396000882309F46AC08091100190911101A091FF
:103970001201B091130180930C0190930D01A0935B
:103980000E01B0930F010E94781C60931001709398
:1039900011018093120190931301809100018F5FB8
:1039A0008093000180910001833008F446C080912B
:1039B000100190911101A0911201B0911301409159
:1039C0000C0150910D0160910E0170910F01841B4B
:1039D000950BA60BB70B8B3C9E41A105B10540F0A2
:1039E00080916600882339F180916600815020C063
:1039F0008091100190911101A0911201B0911301D9
:103A000040910C0150910D0160910E0170910F01D8
:103A1000841B950BA60BB70B8E339E41A105B105F8
:103A200050F4809166008F3F31F0809166008F5F87
:103A30008093660002C010920001FF91EF91BF9148
:103A4000AF919F918F917F916F915F914F913F9136
:103A50002F910F900FBE0F901F9018959091C0005E
:103A600095FFFCCF8093C6000895CF93982F85953E
:103A7000859585958595805D9F709A3014F0C7E592
:103A800001C0C0E3C90F0E942E1D8C2FCF910C9452
:103A90002E1DCF92DF92EF92FF92C12CD12C760196
:103AA0008091C00087FD13C08FEFC81AD80AE80ABA
:103AB000F80A81E2C81681EAD80687E0E806F10430
:103AC00078F3E0910201F09103010995E9CF80912B
:103AD000C600FF90EF90DF90CF900895CF930E94A3
:103AE000491DC82F0E942E1DC13614F089EA03C05B
:103AF000C0331CF080ED8C0F01C08C2FCF91089546
:103B0000CF930E946E1DC82F0E946E1D90E1C99F29
:103B1000800D1124CF910895CF93C82FCC2321F08D
:103B20000E94491DC150FACFCF910895CF93C82F5D
:103B30000E94491D803251F484E10E942E1D8C2F79
:103B40000E942E1D80E1CF910C942E1D80910401C6
:103B50008F5F80930401853031F4E0910201F09190
:103B60000301CF910994CF9108950E94491D80329D
:103B700031F484E10E942E1D80E10C942E1D809171
:103B800004018F5F80930401853029F4E0910201E4
:103B9000F0910301099408958823B1F02D9A2FEF35
:103BA00030E792E0215030409040E1F700C0000043
:103BB0002D982FEF30E792E0215030409040E1F710
:103BC00000C000008150E8CF08959FB7F89485B7F2
:103BD000282F216025BF826085BF9FBF84B582608A
:103BE00084BD84B5816084BD85B5826085BD85B5A1
:103BF000816085BD80916E00816080936E0010921F
:103C0000B00081E08093B10090E29093B600809381
:103C100070007894809100018111FCCF80916E003A
:103C20008E7F80936E00809170008E7F80937000F5
:103C3000F89485B7982F916095BF8D7F85BF000060
:103C4000E0E0F0E0E49182E08093C00080E18093C6
:103C5000C4001092C50088E18093C10086E0809383
:103C6000C2005098589A259A81E00E94CC1DFF24EA
:103C7000F3940E94491D803309F442C08133E1F47A
:103C80000E94491D803209F0A6C184E10E942E1DC8
:103C900081E40E942E1D86E50E942E1D82E50E9471
:103CA0002E1D80E20E942E1D89E40E942E1D83E5B8
:103CB0000E942E1D80E586C1803439F40E94491D82
:103CC0008638F0F00E94491D1BC08134A1F40E9487
:103CD000491D803811F482E003C0813821F481E06D
:103CE0000E94961DC6CF823811F480E1F9CF883941
:103CF000C9F583E0F5CF823431F484E10E948C1D54
:103D00000E94B51DB6CF853411F485E0F7CF982F0A
:103D10009D7F9035A9F3813599F3853549F40E944B
:103D2000491D80930A010E94491D80930B01E8CF31
:103D30008635D1F40E94491D803389F40E94491DC3
:103D40000E94491D182F0E94491D111102C08EE1C9
:103D5000C7CF113011F484E9C3CF8BE0C1CF83E02A
:103D60000E948C1D80E0BCCF843609F0C6C00E9442
:103D7000491D809315020E94491D80931402809171
:103D800018028E7F809318020E94491D853429F401
:103D90008091180281608093180204E111E0209163
:103DA000140230911502C801845191408217930783
:103DB00030F40E94491DF80181938F01F0CF0E94D9
:103DC000491D803209F007C18091180220910A0133
:103DD00030910B0180FF29C0220F331F30930B015C
:103DE00020930A01E4E1F1E02091140230911502E0
:103DF000CF01845191408217930708F07CC0F99954
:103E0000FECF80910A0190910B0192BD81BD8191FD
:103E100080BDFA9AF99A80910A0190910B0101965E
:103E200090930B0180930A01DFCF80910B01880FE3
:103E3000880B8F2180931702220F331F30930B01C1
:103E400020930A018091140280FF09C0809114021E
:103E50009091150201969093150280931402F894A4
:103E6000F999FECF1127E0910A01F0910B01C4E10D
:103E7000D1E08091140290911502103091F40091DC
:103E8000570001700130D9F303E000935700E89523
:103E90000091570001700130D9F301E10093570000
:103EA000E895099019900091570001700130D9F3FD
:103EB00001E000935700E8951395103498F011270E
:103EC0000091570001700130D9F305E000935700CD
:103ED000E8950091570001700130D9F301E100939A
:103EE0005700E8953296029709F0C7CF103011F0CD
:103EF0000296E5CF112484E165C0843709F052C0F1
:103F00000E94491D809315020E94491D809314024E
:103F100080910A0190910B01880F991F90930B01DA
:103F200080930A010E94491D90911802853411F472
:103F3000916001C09E7F909318020E94491D8032BB
:103F400009F097CE84E10E942E1D00E010E08091E0
:103F500014029091150208171907B0F58091180204
:103F600080FF0BC0F999FECF80910A0190910B015F
:103F700092BD81BDF89A80B507C081FD07C0E09170
:103F80000A01F0910B0184910E942E1D80910A017B
:103F900090910B01019690930B0180930A010F5FA2
:103FA0001F4FD5CF8537A1F40E94491D803299F467
:103FB00084E10E942E1D8EE10E942E1D84E90E9444
:103FC0002E1D8BE00E942E1D80E10E942E1D51CEE1
:103FD000863709F4C7CE809104018F5F8093040176
:103FE000853009F046CEE0910201F0910301099578
:063FF00040CEF894FFCF63
:023FF600018048
:0400000300003800C1
:00000001FF
